{
  "_format": "hh-sol-artifact-1",
  "contractName": "ArtMarketplace",
  "sourceName": "contracts/Artify.sol",
  "abi": [
    {
      "inputs": [
        {
          "internalType": "string",
          "name": "_description",
          "type": "string"
        },
        {
          "internalType": "string",
          "name": "_title",
          "type": "string"
        },
        {
          "internalType": "string",
          "name": "_image",
          "type": "string"
        },
        {
          "internalType": "uint256",
          "name": "_price",
          "type": "uint256"
        },
        {
          "internalType": "string",
          "name": "_artistCredentials",
          "type": "string"
        },
        {
          "internalType": "uint256",
          "name": "_quantity",
          "type": "uint256"
        },
        {
          "internalType": "bool",
          "name": "_isLimitedEdition",
          "type": "bool"
        }
      ],
      "name": "addArtwork",
      "outputs": [],
      "stateMutability": "nonpayable",
      "type": "function"
    },
    {
      "inputs": [],
      "name": "artworkCount",
      "outputs": [
        {
          "internalType": "uint256",
          "name": "",
          "type": "uint256"
        }
      ],
      "stateMutability": "view",
      "type": "function"
    },
    {
      "inputs": [
        {
          "internalType": "uint256",
          "name": "",
          "type": "uint256"
        }
      ],
      "name": "artworkToOwner",
      "outputs": [
        {
          "internalType": "address",
          "name": "",
          "type": "address"
        }
      ],
      "stateMutability": "view",
      "type": "function"
    },
    {
      "inputs": [
        {
          "internalType": "uint256",
          "name": "",
          "type": "uint256"
        }
      ],
      "name": "artworks",
      "outputs": [
        {
          "internalType": "uint256",
          "name": "id",
          "type": "uint256"
        },
        {
          "internalType": "string",
          "name": "title",
          "type": "string"
        },
        {
          "internalType": "string",
          "name": "description",
          "type": "string"
        },
        {
          "internalType": "string",
          "name": "image",
          "type": "string"
        },
        {
          "internalType": "uint256",
          "name": "price",
          "type": "uint256"
        },
        {
          "internalType": "string",
          "name": "artistCredentials",
          "type": "string"
        },
        {
          "internalType": "uint256",
          "name": "quantity",
          "type": "uint256"
        },
        {
          "internalType": "uint256",
          "name": "status",
          "type": "uint256"
        },
        {
          "internalType": "bool",
          "name": "isLimitedEdition",
          "type": "bool"
        },
        {
          "internalType": "address payable",
          "name": "currentOwner",
          "type": "address"
        },
        {
          "internalType": "address payable",
          "name": "firstOwner",
          "type": "address"
        },
        {
          "internalType": "bool",
          "name": "verified",
          "type": "bool"
        }
      ],
      "stateMutability": "view",
      "type": "function"
    },
    {
      "inputs": [
        {
          "internalType": "uint256",
          "name": "_artworkId",
          "type": "uint256"
        }
      ],
      "name": "buyArtwork",
      "outputs": [],
      "stateMutability": "payable",
      "type": "function"
    },
    {
      "inputs": [
        {
          "internalType": "address",
          "name": "",
          "type": "address"
        }
      ],
      "name": "buyers",
      "outputs": [
        {
          "internalType": "bool",
          "name": "",
          "type": "bool"
        }
      ],
      "stateMutability": "view",
      "type": "function"
    },
    {
      "inputs": [
        {
          "internalType": "address",
          "name": "",
          "type": "address"
        },
        {
          "internalType": "uint256",
          "name": "",
          "type": "uint256"
        }
      ],
      "name": "buyersArtworks",
      "outputs": [
        {
          "internalType": "uint256",
          "name": "",
          "type": "uint256"
        }
      ],
      "stateMutability": "view",
      "type": "function"
    },
    {
      "inputs": [],
      "name": "getAllArtworks",
      "outputs": [
        {
          "components": [
            {
              "internalType": "uint256",
              "name": "id",
              "type": "uint256"
            },
            {
              "internalType": "string",
              "name": "title",
              "type": "string"
            },
            {
              "internalType": "string",
              "name": "description",
              "type": "string"
            },
            {
              "internalType": "string",
              "name": "image",
              "type": "string"
            },
            {
              "internalType": "uint256",
              "name": "price",
              "type": "uint256"
            },
            {
              "internalType": "string",
              "name": "artistCredentials",
              "type": "string"
            },
            {
              "internalType": "uint256",
              "name": "quantity",
              "type": "uint256"
            },
            {
              "internalType": "uint256",
              "name": "status",
              "type": "uint256"
            },
            {
              "internalType": "bool",
              "name": "isLimitedEdition",
              "type": "bool"
            },
            {
              "internalType": "address payable",
              "name": "currentOwner",
              "type": "address"
            },
            {
              "internalType": "address payable",
              "name": "firstOwner",
              "type": "address"
            },
            {
              "internalType": "bool",
              "name": "verified",
              "type": "bool"
            }
          ],
          "internalType": "struct ArtMarketplace.Artwork[]",
          "name": "",
          "type": "tuple[]"
        }
      ],
      "stateMutability": "view",
      "type": "function"
    },
    {
      "inputs": [
        {
          "internalType": "address",
          "name": "sup",
          "type": "address"
        }
      ],
      "name": "getBuyerArtworks",
      "outputs": [
        {
          "components": [
            {
              "internalType": "uint256",
              "name": "id",
              "type": "uint256"
            },
            {
              "internalType": "string",
              "name": "title",
              "type": "string"
            },
            {
              "internalType": "string",
              "name": "description",
              "type": "string"
            },
            {
              "internalType": "string",
              "name": "image",
              "type": "string"
            },
            {
              "internalType": "uint256",
              "name": "price",
              "type": "uint256"
            },
            {
              "internalType": "string",
              "name": "artistCredentials",
              "type": "string"
            },
            {
              "internalType": "uint256",
              "name": "quantity",
              "type": "uint256"
            },
            {
              "internalType": "uint256",
              "name": "status",
              "type": "uint256"
            },
            {
              "internalType": "bool",
              "name": "isLimitedEdition",
              "type": "bool"
            },
            {
              "internalType": "address payable",
              "name": "currentOwner",
              "type": "address"
            },
            {
              "internalType": "address payable",
              "name": "firstOwner",
              "type": "address"
            },
            {
              "internalType": "bool",
              "name": "verified",
              "type": "bool"
            }
          ],
          "internalType": "struct ArtMarketplace.Artwork[]",
          "name": "",
          "type": "tuple[]"
        }
      ],
      "stateMutability": "view",
      "type": "function"
    },
    {
      "inputs": [
        {
          "internalType": "address",
          "name": "sup",
          "type": "address"
        }
      ],
      "name": "getInitArtworks",
      "outputs": [
        {
          "internalType": "uint256[]",
          "name": "list",
          "type": "uint256[]"
        }
      ],
      "stateMutability": "view",
      "type": "function"
    },
    {
      "inputs": [
        {
          "internalType": "uint256",
          "name": "_artworkId",
          "type": "uint256"
        }
      ],
      "name": "getStatus",
      "outputs": [
        {
          "internalType": "string",
          "name": "statusss",
          "type": "string"
        }
      ],
      "stateMutability": "view",
      "type": "function"
    },
    {
      "inputs": [
        {
          "internalType": "address",
          "name": "sup",
          "type": "address"
        }
      ],
      "name": "getSupplierArtworks",
      "outputs": [
        {
          "components": [
            {
              "internalType": "uint256",
              "name": "id",
              "type": "uint256"
            },
            {
              "internalType": "string",
              "name": "title",
              "type": "string"
            },
            {
              "internalType": "string",
              "name": "description",
              "type": "string"
            },
            {
              "internalType": "string",
              "name": "image",
              "type": "string"
            },
            {
              "internalType": "uint256",
              "name": "price",
              "type": "uint256"
            },
            {
              "internalType": "string",
              "name": "artistCredentials",
              "type": "string"
            },
            {
              "internalType": "uint256",
              "name": "quantity",
              "type": "uint256"
            },
            {
              "internalType": "uint256",
              "name": "status",
              "type": "uint256"
            },
            {
              "internalType": "bool",
              "name": "isLimitedEdition",
              "type": "bool"
            },
            {
              "internalType": "address payable",
              "name": "currentOwner",
              "type": "address"
            },
            {
              "internalType": "address payable",
              "name": "firstOwner",
              "type": "address"
            },
            {
              "internalType": "bool",
              "name": "verified",
              "type": "bool"
            }
          ],
          "internalType": "struct ArtMarketplace.Artwork[]",
          "name": "",
          "type": "tuple[]"
        }
      ],
      "stateMutability": "view",
      "type": "function"
    },
    {
      "inputs": [
        {
          "internalType": "address",
          "name": "sup",
          "type": "address"
        }
      ],
      "name": "getVerifierArtworks",
      "outputs": [
        {
          "components": [
            {
              "internalType": "uint256",
              "name": "id",
              "type": "uint256"
            },
            {
              "internalType": "string",
              "name": "title",
              "type": "string"
            },
            {
              "internalType": "string",
              "name": "description",
              "type": "string"
            },
            {
              "internalType": "string",
              "name": "image",
              "type": "string"
            },
            {
              "internalType": "uint256",
              "name": "price",
              "type": "uint256"
            },
            {
              "internalType": "string",
              "name": "artistCredentials",
              "type": "string"
            },
            {
              "internalType": "uint256",
              "name": "quantity",
              "type": "uint256"
            },
            {
              "internalType": "uint256",
              "name": "status",
              "type": "uint256"
            },
            {
              "internalType": "bool",
              "name": "isLimitedEdition",
              "type": "bool"
            },
            {
              "internalType": "address payable",
              "name": "currentOwner",
              "type": "address"
            },
            {
              "internalType": "address payable",
              "name": "firstOwner",
              "type": "address"
            },
            {
              "internalType": "bool",
              "name": "verified",
              "type": "bool"
            }
          ],
          "internalType": "struct ArtMarketplace.Artwork[]",
          "name": "",
          "type": "tuple[]"
        }
      ],
      "stateMutability": "view",
      "type": "function"
    },
    {
      "inputs": [
        {
          "internalType": "uint256",
          "name": "_artworkId",
          "type": "uint256"
        }
      ],
      "name": "initDelivery",
      "outputs": [],
      "stateMutability": "payable",
      "type": "function"
    },
    {
      "inputs": [
        {
          "internalType": "uint256",
          "name": "_artworkId",
          "type": "uint256"
        }
      ],
      "name": "offerLimitedEditionArtwork",
      "outputs": [],
      "stateMutability": "nonpayable",
      "type": "function"
    },
    {
      "inputs": [
        {
          "internalType": "address",
          "name": "_address",
          "type": "address"
        }
      ],
      "name": "registerBuyer",
      "outputs": [],
      "stateMutability": "nonpayable",
      "type": "function"
    },
    {
      "inputs": [
        {
          "internalType": "address",
          "name": "_address",
          "type": "address"
        }
      ],
      "name": "registerSupplier",
      "outputs": [],
      "stateMutability": "nonpayable",
      "type": "function"
    },
    {
      "inputs": [
        {
          "internalType": "address",
          "name": "_address",
          "type": "address"
        }
      ],
      "name": "registerVerifier",
      "outputs": [],
      "stateMutability": "nonpayable",
      "type": "function"
    },
    {
      "inputs": [
        {
          "internalType": "uint256",
          "name": "_artworkId",
          "type": "uint256"
        },
        {
          "internalType": "uint256",
          "name": "_q",
          "type": "uint256"
        }
      ],
      "name": "reqbuyArtwork",
      "outputs": [],
      "stateMutability": "payable",
      "type": "function"
    },
    {
      "inputs": [
        {
          "internalType": "address",
          "name": "",
          "type": "address"
        }
      ],
      "name": "suppliers",
      "outputs": [
        {
          "internalType": "bool",
          "name": "",
          "type": "bool"
        }
      ],
      "stateMutability": "view",
      "type": "function"
    },
    {
      "inputs": [
        {
          "internalType": "address",
          "name": "",
          "type": "address"
        },
        {
          "internalType": "uint256",
          "name": "",
          "type": "uint256"
        }
      ],
      "name": "suppliersArtworks",
      "outputs": [
        {
          "internalType": "uint256",
          "name": "",
          "type": "uint256"
        }
      ],
      "stateMutability": "view",
      "type": "function"
    },
    {
      "inputs": [
        {
          "internalType": "uint256",
          "name": "_artworkId",
          "type": "uint256"
        },
        {
          "internalType": "uint256",
          "name": "_quantity",
          "type": "uint256"
        }
      ],
      "name": "updateArtworkQuantity",
      "outputs": [],
      "stateMutability": "nonpayable",
      "type": "function"
    },
    {
      "inputs": [
        {
          "internalType": "address",
          "name": "",
          "type": "address"
        }
      ],
      "name": "verifiers",
      "outputs": [
        {
          "internalType": "bool",
          "name": "",
          "type": "bool"
        }
      ],
      "stateMutability": "view",
      "type": "function"
    },
    {
      "inputs": [
        {
          "internalType": "address",
          "name": "",
          "type": "address"
        },
        {
          "internalType": "uint256",
          "name": "",
          "type": "uint256"
        }
      ],
      "name": "verifiersArtworks",
      "outputs": [
        {
          "internalType": "uint256",
          "name": "",
          "type": "uint256"
        }
      ],
      "stateMutability": "view",
      "type": "function"
    },
    {
      "inputs": [
        {
          "internalType": "uint256",
          "name": "_artworkId",
          "type": "uint256"
        }
      ],
      "name": "verifyArtwork",
      "outputs": [],
      "stateMutability": "nonpayable",
      "type": "function"
    }
  ],
  "bytecode": "0x608060405234801561000f575f80fd5b50612afc8061001d5f395ff3fe608060405260043610610160575f3560e01c806394644002116100cd578063bfcf0ec611610087578063d36bc81b11610062578063d36bc81b1461048c578063e44c3c4b146104ab578063e942fe74146104be578063ecd0fbd5146104dd575f80fd5b8063bfcf0ec61461042f578063c639e8c51461044e578063cf7f5e5f1461046d575f80fd5b8063946440021461036e57806395274b691461039a57806397a993aa146103b95780639c0cc30c146103e7578063a0876445146103fb578063b9281d3514610410575f80fd5b80635c622a0e1161011e5780635c622a0e1461026b5780636c8244871461029757806373ba1122146102c55780637be359a1146102e4578063868ee1a5146103035780638b2bdf2514610322575f80fd5b8062c6622e14610164578063076f47d3146101795780631695759a146101ab57806316dc15fe146101d75780634b602673146102155780635348faec1461024c575b5f80fd5b61017761017236600461236b565b6104f0565b005b348015610184575f80fd5b506101986101933660046123a6565b610744565b6040519081526020015b60405180910390f35b3480156101b6575f80fd5b506101ca6101c53660046123ce565b61076f565b6040516101a29190612431565b3480156101e2575f80fd5b506102056101f13660046123ce565b60026020525f908152604090205460ff1681565b60405190151581526020016101a2565b348015610220575f80fd5b5061023461022f366004612560565b610b33565b6040516101a29c9b9a99989796959493929190612577565b348015610257575f80fd5b506101986102663660046123a6565b610dba565b348015610276575f80fd5b5061028a610285366004612560565b610dd3565b6040516101a29190612625565b3480156102a2575f80fd5b506102056102b13660046123ce565b60046020525f908152604090205460ff1681565b3480156102d0575f80fd5b506101986102df3660046123a6565b610ea3565b3480156102ef575f80fd5b506101776102fe36600461236b565b610ebc565b34801561030e575f80fd5b5061017761031d3660046126e3565b610f23565b34801561032d575f80fd5b5061035661033c366004612560565b60086020525f90815260409020546001600160a01b031681565b6040516001600160a01b0390911681526020016101a2565b348015610379575f80fd5b5061038d6103883660046123ce565b6110e8565b6040516101a291906127ab565b3480156103a5575f80fd5b506101776103b4366004612560565b61121b565b3480156103c4575f80fd5b506102056103d33660046123ce565b60036020525f908152604090205460ff1681565b3480156103f2575f80fd5b506101ca61128b565b348015610406575f80fd5b5061019860015481565b34801561041b575f80fd5b5061017761042a3660046123ce565b6115f0565b34801561043a575f80fd5b50610177610449366004612560565b61167b565b348015610459575f80fd5b506101776104683660046123ce565b6117b4565b348015610478575f80fd5b506101776104873660046123ce565b61183f565b348015610497575f80fd5b506101ca6104a63660046123ce565b6118ca565b6101776104b9366004612560565b611c87565b3480156104c9575f80fd5b506101ca6104d83660046123ce565b611eae565b6101776104eb366004612560565b61226b565b335f9081526003602052604090205460ff166105275760405162461bcd60e51b815260040161051e906127ee565b60405180910390fd5b610530826122e4565b61054c5760405162461bcd60e51b815260040161051e9061283b565b5f828152602081905260409020600601548111156105a25760405162461bcd60e51b81526020600482015260136024820152724e6f7420656e6f75676820617274776f726b7360681b604482015260640161051e565b803410156105e55760405162461bcd60e51b815260206004820152601060248201526f4e6f7420656e6f756768206d6f6e657960801b604482015260640161051e565b5f828152602081905260409020600881015460078201546101009091046001600160a01b031691901561062a5760405162461bcd60e51b815260040161051e9061286b565b600781018054905f61063b836128a1565b9091555050600881018054610100600160a81b0319163361010002179055600681018054905f61066a836128b9565b90915550506009810154600882015434916001600160a01b039081166101009092041614610709575f858152602081905260408120600901546001600160a01b0316906106b86064846128ce565b6106c39060026128ed565b6040519091506001600160a01b0383169082156108fc029083905f818181858888f193505050501580156106f9573d5f803e3d5ffd5b506107048184612904565b925050505b6040516001600160a01b0384169082156108fc029083905f818181858888f1935050505015801561073c573d5f803e3d5ffd5b505050505050565b6005602052815f5260405f20818154811061075d575f80fd5b905f5260205f20015f91509150505481565b6001600160a01b0381165f908152600660205260408120546060919067ffffffffffffffff8111156107a3576107a3612637565b6040519080825280602002602001820160405280156107dc57816020015b6107c96122fc565b8152602001906001900390816107c15790505b5090505f5b6001600160a01b0384165f90815260066020526040902054811015610b2c576001600160a01b0384165f90815260066020526040812080548291908490811061082c5761082c612917565b905f5260205f20015481526020019081526020015f20604051806101800160405290815f82015481526020016001820180546108679061292b565b80601f01602080910402602001604051908101604052809291908181526020018280546108939061292b565b80156108de5780601f106108b5576101008083540402835291602001916108de565b820191905f5260205f20905b8154815290600101906020018083116108c157829003601f168201915b505050505081526020016002820180546108f79061292b565b80601f01602080910402602001604051908101604052809291908181526020018280546109239061292b565b801561096e5780601f106109455761010080835404028352916020019161096e565b820191905f5260205f20905b81548152906001019060200180831161095157829003601f168201915b505050505081526020016003820180546109879061292b565b80601f01602080910402602001604051908101604052809291908181526020018280546109b39061292b565b80156109fe5780601f106109d5576101008083540402835291602001916109fe565b820191905f5260205f20905b8154815290600101906020018083116109e157829003601f168201915b5050505050815260200160048201548152602001600582018054610a219061292b565b80601f0160208091040260200160405190810160405280929190818152602001828054610a4d9061292b565b8015610a985780601f10610a6f57610100808354040283529160200191610a98565b820191905f5260205f20905b815481529060010190602001808311610a7b57829003601f168201915b50505091835250506006820154602082015260078201546040820152600882015460ff808216151560608401526001600160a01b036101009092048216608084015260099093015490811660a0830152600160a01b9004909116151560c0909101528251839083908110610b0e57610b0e612917565b60200260200101819052508080610b24906128a1565b9150506107e1565b5092915050565b5f6020819052908152604090208054600182018054919291610b549061292b565b80601f0160208091040260200160405190810160405280929190818152602001828054610b809061292b565b8015610bcb5780601f10610ba257610100808354040283529160200191610bcb565b820191905f5260205f20905b815481529060010190602001808311610bae57829003601f168201915b505050505090806002018054610be09061292b565b80601f0160208091040260200160405190810160405280929190818152602001828054610c0c9061292b565b8015610c575780601f10610c2e57610100808354040283529160200191610c57565b820191905f5260205f20905b815481529060010190602001808311610c3a57829003601f168201915b505050505090806003018054610c6c9061292b565b80601f0160208091040260200160405190810160405280929190818152602001828054610c989061292b565b8015610ce35780601f10610cba57610100808354040283529160200191610ce3565b820191905f5260205f20905b815481529060010190602001808311610cc657829003601f168201915b505050505090806004015490806005018054610cfe9061292b565b80601f0160208091040260200160405190810160405280929190818152602001828054610d2a9061292b565b8015610d755780601f10610d4c57610100808354040283529160200191610d75565b820191905f5260205f20905b815481529060010190602001808311610d5857829003601f168201915b5050506006840154600785015460088601546009909601549495919490935060ff80831693506001600160a01b03610100909304831692821691600160a01b9004168c565b6007602052815f5260405f20818154811061075d575f80fd5b5f81815260208190526040812060070154606091819003610e105750506040805180820190915260048152631395531360e21b6020820152919050565b80600103610e3f57505060408051808201909152600981526814995c5d595cdd195960ba1b6020820152919050565b80600203610e6e575050604080518082019091526009815268125b9a5d1a585d195960ba1b6020820152919050565b80600303610e9d57505060408051808201909152600981526811195b1a5d995c995960ba1b6020820152919050565b50919050565b6006602052815f5260405f20818154811061075d575f80fd5b335f9081526002602052604090205460ff16610eea5760405162461bcd60e51b815260040161051e9061295d565b610ef3826122e4565b610f0f5760405162461bcd60e51b815260040161051e9061283b565b5f9182526020829052604090912060060155565b335f9081526002602052604090205460ff16610f515760405162461bcd60e51b815260040161051e9061295d565b60408051610180810182526001805480835260208084018b81528486018d9052606085018b9052608085018a905260a0850189905260c085018890525f60e0860181905287151561010087015233610120870181905261014087015261016086018190529283529082905293902082518155925191929190820190610fd690826129f7565b5060408201516002820190610feb90826129f7565b506060820151600382019061100090826129f7565b506080820151600482015560a0820151600582019061101f90826129f7565b5060c0820151600682015560e08201516007820155610100808301516008830180546101208601516001600160a01b03908116909402610100600160a81b0319931515939093166001600160a81b03199182161792909217905561014084015160099093018054610160909501511515600160a01b0294909116929091169190911791909117905560018054905f6110b6836128a1565b9091555050335f9081526005602090815260408220600180548254918201835591845291909220015550505050505050565b6001600160a01b0381165f908152600560205260408120546060918167ffffffffffffffff81111561111c5761111c612637565b604051908082528060200260200182016040528015611145578160200160208202803683370190505b5090505f5b82811015611213576001600160a01b0385165f9081526005602052604081208054829182918590811061117f5761117f612917565b905f5260205f20015481526020019081526020015f2090508060070154600103611200576001600160a01b0386165f9081526005602052604090208054839081106111cc576111cc612917565b905f5260205f20015460016111e19190612ab3565b8383815181106111f3576111f3612917565b6020026020010181815250505b508061120b816128a1565b91505061114a565b509392505050565b335f9081526002602052604090205460ff166112495760405162461bcd60e51b815260040161051e9061295d565b611252816122e4565b61126e5760405162461bcd60e51b815260040161051e9061283b565b5f908152602081905260409020600801805460ff19166001179055565b60605f60015467ffffffffffffffff8111156112a9576112a9612637565b6040519080825280602002602001820160405280156112e257816020015b6112cf6122fc565b8152602001906001900390816112c75790505b5090505f5b600154811015610e9d575f805f8381526020019081526020015f20905080604051806101800160405290815f820154815260200160018201805461132a9061292b565b80601f01602080910402602001604051908101604052809291908181526020018280546113569061292b565b80156113a15780601f10611378576101008083540402835291602001916113a1565b820191905f5260205f20905b81548152906001019060200180831161138457829003601f168201915b505050505081526020016002820180546113ba9061292b565b80601f01602080910402602001604051908101604052809291908181526020018280546113e69061292b565b80156114315780601f1061140857610100808354040283529160200191611431565b820191905f5260205f20905b81548152906001019060200180831161141457829003601f168201915b5050505050815260200160038201805461144a9061292b565b80601f01602080910402602001604051908101604052809291908181526020018280546114769061292b565b80156114c15780601f10611498576101008083540402835291602001916114c1565b820191905f5260205f20905b8154815290600101906020018083116114a457829003601f168201915b50505050508152602001600482015481526020016005820180546114e49061292b565b80601f01602080910402602001604051908101604052809291908181526020018280546115109061292b565b801561155b5780601f106115325761010080835404028352916020019161155b565b820191905f5260205f20905b81548152906001019060200180831161153e57829003601f168201915b50505091835250506006820154602082015260078201546040820152600882015460ff808216151560608401526001600160a01b036101009092048216608084015260099093015490811660a0830152600160a01b9004909116151560c09091015283518490849081106115d1576115d1612917565b60200260200101819052505080806115e8906128a1565b9150506112e7565b6001600160a01b0381165f9081526003602052604090205460ff16156116585760405162461bcd60e51b815260206004820152601d60248201527f416c726561647920726567697374657265642061732061206275796572000000604482015260640161051e565b6001600160a01b03165f908152600360205260409020805460ff19166001179055565b335f9081526004602052604090205460ff166116f25760405162461bcd60e51b815260206004820152603060248201527f4f6e6c792072656769737465726564207665726966696572732063616e20636160448201526f3636103a3434b990333ab731ba34b7b760811b606482015260840161051e565b6116fb816122e4565b6117175760405162461bcd60e51b815260040161051e9061283b565b5f818152600860205260409020546001600160a01b0316806117735760405162461bcd60e51b815260206004820152601560248201527424b73b30b634b21030b93a3bb7b9359037bbb732b960591b604482015260640161051e565b50335f90815260076020908152604080832080546001810182559084528284200184905592825281905220600901805460ff60a01b1916600160a01b179055565b6001600160a01b0381165f9081526004602052604090205460ff161561181c5760405162461bcd60e51b815260206004820181905260248201527f416c726561647920726567697374657265642061732061207665726966696572604482015260640161051e565b6001600160a01b03165f908152600460205260409020805460ff19166001179055565b6001600160a01b0381165f9081526002602052604090205460ff16156118a75760405162461bcd60e51b815260206004820181905260248201527f416c72656164792072656769737465726564206173206120737570706c696572604482015260640161051e565b6001600160a01b03165f908152600260205260409020805460ff19166001179055565b6001600160a01b0381165f908152600760205260408120546060919067ffffffffffffffff8111156118fe576118fe612637565b60405190808252806020026020018201604052801561193757816020015b6119246122fc565b81526020019060019003908161191c5790505b5090505f5b6001600160a01b0384165f90815260076020526040902054811015610b2c576001600160a01b0384165f90815260076020526040812080548291908490811061198757611987612917565b905f5260205f20015481526020019081526020015f20604051806101800160405290815f82015481526020016001820180546119c29061292b565b80601f01602080910402602001604051908101604052809291908181526020018280546119ee9061292b565b8015611a395780601f10611a1057610100808354040283529160200191611a39565b820191905f5260205f20905b815481529060010190602001808311611a1c57829003601f168201915b50505050508152602001600282018054611a529061292b565b80601f0160208091040260200160405190810160405280929190818152602001828054611a7e9061292b565b8015611ac95780601f10611aa057610100808354040283529160200191611ac9565b820191905f5260205f20905b815481529060010190602001808311611aac57829003601f168201915b50505050508152602001600382018054611ae29061292b565b80601f0160208091040260200160405190810160405280929190818152602001828054611b0e9061292b565b8015611b595780601f10611b3057610100808354040283529160200191611b59565b820191905f5260205f20905b815481529060010190602001808311611b3c57829003601f168201915b5050505050815260200160048201548152602001600582018054611b7c9061292b565b80601f0160208091040260200160405190810160405280929190818152602001828054611ba89061292b565b8015611bf35780601f10611bca57610100808354040283529160200191611bf3565b820191905f5260205f20905b815481529060010190602001808311611bd657829003601f168201915b50505091835250506006820154602082015260078201546040820152600882015460ff808216151560608401526001600160a01b036101009092048216608084015260099093015490811660a0830152600160a01b9004909116151560c0909101528251839083908110611c6957611c69612917565b60200260200101819052508080611c7f906128a1565b91505061193c565b335f9081526003602052604090205460ff16611cb55760405162461bcd60e51b815260040161051e906127ee565b611cbe816122e4565b611cda5760405162461bcd60e51b815260040161051e9061283b565b5f81815260208190526040902060040154341015611d2d5760405162461bcd60e51b815260206004820152601060248201526f4e6f7420656e6f756768206d6f6e657960801b604482015260640161051e565b5f818152602081905260409020600881015460078201546101009091046001600160a01b03169190600214611d745760405162461bcd60e51b815260040161051e9061286b565b600781018054905f611d85836128a1565b9091555050600881018054610100600160a81b0319163361010002179055600681018054905f611db4836128b9565b90915550506009810154600882015434916001600160a01b039081166101009092041614611e53575f848152602081905260408120600901546001600160a01b031690611e026064846128ce565b611e0d9060026128ed565b6040519091506001600160a01b0383169082156108fc029083905f818181858888f19350505050158015611e43573d5f803e3d5ffd5b50611e4e8184612904565b925050505b6040516001600160a01b0384169082156108fc029083905f818181858888f19350505050158015611e86573d5f803e3d5ffd5b5050335f90815260066020908152604082208054600181018255908352912001929092555050565b6001600160a01b0381165f908152600560205260408120546060919067ffffffffffffffff811115611ee257611ee2612637565b604051908082528060200260200182016040528015611f1b57816020015b611f086122fc565b815260200190600190039081611f005790505b5090505f5b6001600160a01b0384165f90815260056020526040902054811015610b2c576001600160a01b0384165f908152600560205260408120805482919084908110611f6b57611f6b612917565b905f5260205f20015481526020019081526020015f20604051806101800160405290815f8201548152602001600182018054611fa69061292b565b80601f0160208091040260200160405190810160405280929190818152602001828054611fd29061292b565b801561201d5780601f10611ff45761010080835404028352916020019161201d565b820191905f5260205f20905b81548152906001019060200180831161200057829003601f168201915b505050505081526020016002820180546120369061292b565b80601f01602080910402602001604051908101604052809291908181526020018280546120629061292b565b80156120ad5780601f10612084576101008083540402835291602001916120ad565b820191905f5260205f20905b81548152906001019060200180831161209057829003601f168201915b505050505081526020016003820180546120c69061292b565b80601f01602080910402602001604051908101604052809291908181526020018280546120f29061292b565b801561213d5780601f106121145761010080835404028352916020019161213d565b820191905f5260205f20905b81548152906001019060200180831161212057829003601f168201915b50505050508152602001600482015481526020016005820180546121609061292b565b80601f016020809104026020016040519081016040528092919081815260200182805461218c9061292b565b80156121d75780601f106121ae576101008083540402835291602001916121d7565b820191905f5260205f20905b8154815290600101906020018083116121ba57829003601f168201915b50505091835250506006820154602082015260078201546040820152600882015460ff808216151560608401526001600160a01b036101009092048216608084015260099093015490811660a0830152600160a01b9004909116151560c090910152825183908390811061224d5761224d612917565b60200260200101819052508080612263906128a1565b915050611f20565b335f9081526002602052604090205460ff166122995760405162461bcd60e51b815260040161051e9061295d565b5f81815260208190526040902060078101546001146122ca5760405162461bcd60e51b815260040161051e9061286b565b600781018054905f6122db836128a1565b91905055505050565b5f80821180156122f657506001548211155b92915050565b6040518061018001604052805f81526020016060815260200160608152602001606081526020015f8152602001606081526020015f81526020015f81526020015f151581526020015f6001600160a01b031681526020015f6001600160a01b031681526020015f151581525090565b5f806040838503121561237c575f80fd5b50508035926020909101359150565b80356001600160a01b03811681146123a1575f80fd5b919050565b5f80604083850312156123b7575f80fd5b6123c08361238b565b946020939093013593505050565b5f602082840312156123de575f80fd5b6123e78261238b565b9392505050565b5f81518084525f5b81811015612412576020818501810151868301820152016123f6565b505f602082860101526020601f19601f83011685010191505092915050565b5f6020808301818452808551808352604092508286019150828160051b8701018488015f5b8381101561255257603f1989840301855281516101808151855288820151818a870152612485828701826123ee565b915050878201518582038987015261249d82826123ee565b915050606080830151868303828801526124b783826123ee565b92505050608080830151818701525060a080830151868303828801526124dd83826123ee565b9250505060c080830151818701525060e08083015181870152506101008083015161250b8288018215159052565b5050610120828101516001600160a01b0390811691870191909152610140808401519091169086015261016091820151151591909401529386019390860190600101612456565b509098975050505050505050565b5f60208284031215612570575f80fd5b5035919050565b5f6101808e83528060208401526125908184018f6123ee565b905082810360408401526125a4818e6123ee565b905082810360608401526125b8818d6123ee565b90508a608084015282810360a08401526125d2818b6123ee565b60c084018a905260e084018990528715156101008501526001600160a01b038781166101208601528616610140850152915061260b9050565b8215156101608301529d9c50505050505050505050505050565b602081525f6123e760208301846123ee565b634e487b7160e01b5f52604160045260245ffd5b5f82601f83011261265a575f80fd5b813567ffffffffffffffff8082111561267557612675612637565b604051601f8301601f19908116603f0116810190828211818310171561269d5761269d612637565b816040528381528660208588010111156126b5575f80fd5b836020870160208301375f602085830101528094505050505092915050565b803580151581146123a1575f80fd5b5f805f805f805f60e0888a0312156126f9575f80fd5b873567ffffffffffffffff80821115612710575f80fd5b61271c8b838c0161264b565b985060208a0135915080821115612731575f80fd5b61273d8b838c0161264b565b975060408a0135915080821115612752575f80fd5b61275e8b838c0161264b565b965060608a0135955060808a013591508082111561277a575f80fd5b506127878a828b0161264b565b93505060a0880135915061279d60c089016126d4565b905092959891949750929550565b602080825282518282018190525f9190848201906040850190845b818110156127e2578351835292840192918401916001016127c6565b50909695505050505050565b6020808252602d908201527f4f6e6c792072656769737465726564206275796572732063616e2063616c6c2060408201526c3a3434b990333ab731ba34b7b760991b606082015260800190565b602080825260169082015275105c9d1ddbdc9ac8191bd95cc81b9bdd08195e1a5cdd60521b604082015260600190565b60208082526008908201526714995a9958dd195960c21b604082015260600190565b634e487b7160e01b5f52601160045260245ffd5b5f600182016128b2576128b261288d565b5060010190565b5f816128c7576128c761288d565b505f190190565b5f826128e857634e487b7160e01b5f52601260045260245ffd5b500490565b80820281158282048414176122f6576122f661288d565b818103818111156122f6576122f661288d565b634e487b7160e01b5f52603260045260245ffd5b600181811c9082168061293f57607f821691505b602082108103610e9d57634e487b7160e01b5f52602260045260245ffd5b60208082526030908201527f4f6e6c79207265676973746572656420737570706c696572732063616e20636160408201526f3636103a3434b990333ab731ba34b7b760811b606082015260800190565b601f8211156129f2575f81815260208120601f850160051c810160208610156129d35750805b601f850160051c820191505b8181101561073c578281556001016129df565b505050565b815167ffffffffffffffff811115612a1157612a11612637565b612a2581612a1f845461292b565b846129ad565b602080601f831160018114612a58575f8415612a415750858301515b5f19600386901b1c1916600185901b17855561073c565b5f85815260208120601f198616915b82811015612a8657888601518255948401946001909101908401612a67565b5085821015612aa357878501515f19600388901b60f8161c191681555b5050505050600190811b01905550565b808201808211156122f6576122f661288d56fea264697066735822122036090b281d6f6f571be91a4f49045e0f4d65f6e2f4c43af1485095f45400ca6c64736f6c63430008140033",
  "linkReferences": {},
  "deployedLinkReferences": {}
}